:0400000007EF00F016
:0A000800398275ED07F05EEF07F096
:1008000000680400000004F8F042656D2056696E2F
:10081000646F21005049433138463435353000305B
:050820007830340000F7
:1008260016C01AF017C01BF018C01CF019C01DF036
:10083600060ED8901A361B361C361D36E82E1CEFCF
:1008460004F01A500008086E2D0E1B54096E310E66
:100856001C540A6E010E1D540B6E16C01EF017C0F6
:100866001FF018C020F019C021F0060ED8901E36D1
:100876001F3620362136E82E39EF04F01EC00CF064
:100886001FC00DF020C00EF021C00FF0BDEC05F02A
:1008960008C022F009C023F02304D8A055EF04F0C5
:1008A60057EF04F094EF04F016C01AF017C01BF0CF
:1008B60018C01CF019C01DF0040ED8901A361B364D
:1008C6001C361D36E82E60EF04F01A500008086E3C
:1008D6002D0E1B54096E310E1C540A6E010E1D544A
:1008E6000B6E16C01EF017C01FF018C020F019C0FE
:1008F60021F0040ED8901E361F3620362136E82EFB
:100906007DEF04F01EC00CF01FC00DF020C00EF0ED
:1009160021C00FF0BDEC05F008C022F009C023F09D
:10092600AC842304D8B09AEF04F09CEF04F0A4EF53
:1009360004F0948C948E22C0AFFFAC98AB8EAC8A38
:10094600AB881200106E10C00EF00E3A0F0E0E1687
:10095600010E0E160E3A8C500E18EF0B0E188C6EFA
:1009660010C00EF0050E0F6ED8900E320F2EB7EF98
:1009760004F0010E0E160E3A0E468C500E18DF0BC2
:100986000E188C6E10C00EF0060E0F6ED8900E323A
:100996000F2EC9EF04F0010E0E160E3A0E460E4645
:1009A6008C500E18BF0B0E188C6E0E6A10AE01D04E
:1009B6000E2A010E0E160E320E328C500E187F0BBA
:1009C6000E188C6E8C848C8600F08C96000E096E48
:1009D600010E086E02EC07F010C00EF0010E0E16A6
:1009E6000E3A8C500E18EF0B0E188C6E10C00EF0CF
:1009F600D8900E32010E0E160E3A0E468C500E1878
:100A0600DF0B0E188C6E10C00EF0D8900E32D890F8
:100A16000E32010E0E160E3A0E460E468C500E186B
:100A2600BF0B0E188C6E10C00EF0D8900E32D890F8
:100A36000E32D8900E32010E0E160E320E328C5039
:100A46000E187F0B0E188C6E8C8600F08C96000E9E
:100A5600096E030E086E02EC07F01200106E10C04D
:100A66000EF00E3A0F0E0E16010E0E160E3A8C50A2
:100A76000E18EF0B0E188C6E10C00EF0050E0F6ED2
:100A8600D8900E320F2E43EF05F0010E0E160E3AD9
:100A96000E468C500E18DF0B0E188C6E10C00EF022
:100AA600060E0F6ED8900E320F2E55EF05F0010E82
:100AB6000E160E3A0E460E468C500E18BF0B0E182A
:100AC6008C6E0E6A10AE01D00E2A010E0E160E3274
:100AD6000E328C500E187F0B0E188C6E8C948C86F2
:100AE60000F08C96000E096E010E086E02EC07F0FF
:100AF60010C00EF0010E0E160E3A8C500E18EF0BAB
:100B06000E188C6E10C00EF0D8900E32010E0E1616
:100B16000E3A0E468C500E18DF0B0E188C6E10C057
:100B26000EF0D8900E32D8900E32010E0E160E3AF6
:100B36000E460E468C500E18BF0B0E188C6E10C04B
:100B46000EF0D8900E32D8900E32D8900E32010E9A
:100B56000E160E320E328C500E187F0B0E188C6E3F
:100B66008C8600F08C96000E096E030E086E02EC61
:100B760007F01200000E116E0FBEC6EF05F0C4EFAF
:100B860005F0D0EF05F00F1E0E1E0D1E0C6C000EAC
:100B96000D220E220F22010E116E0BBED7EF05F0AD
:100BA600D5EF05F0E1EF05F00B1E0A1E091E086CD5
:100BB600000E09220A220B22010E111A000E126ED5
:100BC600000E136E000E146E000E156E0C500D10F6
:100BD6000E100F10D8B4F2EF05F0F4EF05F02AEF7F
:100BE60006F0010E106EFEEF05F0D8900C360D36AD
:100BF6000E360F36102A0FAE03EF06F005EF06F09D
:100C0600F8EF05F0D89012361336143615360C5018
:100C1600085C0D5009580E500A580F500B58D8A0B2
:100C260017EF06F019EF06F022EF06F00C50085EFB
:100C36000D50095A0E500A5A0F500B5A1280D8906E
:100C46000F320E320D320C32102E05EF06F0115017
:100C5600D8B430EF06F032EF06F03AEF06F0151E84
:100C6600141E131E126C000E13221422152212C01B
:100C760008F013C009F014C00AF015C00BF01200FA
:100C8600166E66EF06F01350800F176E175031EC94
:100C960005F079EF06F01350C00F176E175031ECC0
:100CA60005F079EF06F01350940F176E175031ECDC
:100CB60005F079EF06F01350D40F176E175031EC8C
:100CC60005F079EF06F01650000AD8B446EF06F0A4
:100CD600010AD8B44EEF06F0030AD8B456EF06F070
:100CE600010AD8B45EEF06F079EF06F014C011F0F1
:100CF60015C012F043EC07F012009EAA85EF06F02D
:100D060087EF06F0ADEF06F0AECF01F0000E036EF2
:100D1600000E026E290E0224D96E000E0320DA6E32
:100D2600280E0224E16E000E0320E26EDFCFE7FFFD
:100D3600024A032A035009E1100E025CD8A0A6EF6E
:100D460006F0A8EF06F08DEF06F001C037F0000EB2
:100D5600386E9E9A1200000E0E6E000E0D6EC4EFD7
:100D660006F00D5009240B6E0E500A200C6E0BC0B7
:100D7600F6FF0CC0F7FF0800F550BFEC07F00D4A70
:100D86000E2A0D5009240B6E0E500A200C6E0BC055
:100D9600F6FF0CC0F7FF0800F5500009D8A4D6EFFF
:100DA60006F0D8EF06F0B4EF06F012009590800E2C
:100DB600166E250E176E000E186E000E196E13ECC9
:100DC60004F0000E096E000E086E9EEC07F027EC8C
:100DD60007F0050E136E090E146E080E156E010E41
:100DE60043EC06F0050E136E140E146E080E156E07
:100DF600020E43EC06F0F28EF28C9D8A1200000E73
:100E06000B6E000E0A6E1BEF07F0000E0D6E000E45
:100E16000C6E0C4A0D2A810E0C5C010E0D58D8A0E2
:100E260017EF07F019EF07F00CEF07F00A4A0B2A45
:100E360008500A5C09500B58D8A024EF07F026EF9B
:100E460007F008EF07F01200959495969598959AF5
:100E5600959C959E000E096E280E086E02EC07F012
:100E6600020E31EC05F0280E31EC05F0010E31ECE6
:100E760005F00C0E31EC05F0060E31EC05F0120013
:100E86004FEF07F011C0F6FF12C0F7FF0800F5504C
:100E9600A5EC04F0114A122A11C0F6FF12C0F7FFA2
:100EA6000800F5500009D8A45BEF07F05DEF07F0E6
:100EB60045EF07F01200940EF66E0F0EF76E000E59
:100EC600F86E00EE28F010EE11F00900F5CFEEFFF7
:100ED600E550E150FAE139903992000EF86E0001C2
:100EE6008AEF07F00600E1CF04F0E2CF05F0D9CF94
:100EF60006F0DACF07F080EC06F007C0DAFF06C08E
:100F0600D9FF05C0E2FF04C0E1FF39921100000ECF
:100F1600256E000E246E000E276E000E266ED9EC8E
:100F260006F01F0E0F6E080E106EB2EC07F094EF6F
:100F360007F007EF00F0C190C19208500E080A6E44
:100F4600C1500A18F00B0A18C16EC08EC050C70BEC
:100F56001009C06EC050F80B0509C06E12000FC014
:100F660009F010C00AF0AEEC06F00D0EBFEC07F06B
:100F76000A0EBFEC07F01200086EACA2C5EF07F030
:100F8600C7EF07F0C0EF07F008C0ADFF1200202042
:0F0F96002020202020202020202020202020008C
:020000040030CA
:0E000000040C1F1EFF8381FF0FC00FE00F4096
:00000001FF
